:100000000C9435000C945D000C945D000C947F0200
:100010000C947F020C947F020C945D000C945D00A4
:100020000C945D000C945D000C945D000C945D00DC
:100030000C945D000C945D000C945D000C945D00CC
:100040000C94FA010C945D000C9440010C94720124
:100050000C945D000C945D000C945D000C945D00AC
:100060000C945D000C945D00A20111241FBECFEF23
:10007000D8E0DEBFCDBF11E0A0E0B1E0E2E0F6E005
:1000800002C005900D92A231B107D9F721E0A2E19B
:10009000B1E001C01D92AC3FB207E1F710E0C5E34B
:1000A000D0E004C02197FE010E94F902C433D107B9
:1000B000C9F70E9460000C94FF020C9400000895A0
:1000C0000E9444020E945F00C8EAD0E02097F1F34A
:1000D0000E94A800FBCFFC01918D228D892F90E01A
:1000E000805C9F4F821B91098F7399270895FC01B3
:1000F000918D828D981731F0828DE80FF11D858DDD
:1001000090E008958FEF9FEF0895FC01918D828D0F
:10011000981761F0828DDF01A80FB11D5D968C915B
:10012000928D9F5F9F73928F90E008958FEF9FEF66
:100130000895FC01538D448D252F30E0842F90E0ED
:10014000821B930B541710F0CF96089501970895D2
:1001500088E991E0892B49F080E090E0892B29F033
:100160000E94980181110C9400000895FC01848D77
:10017000DF01A80FB11DA35ABF4F2C91848D90E0D1
:1001800001968F739927848FA689B7892C93A089AC
:10019000B1898C9180648C93938D848D981306C063
:1001A0000288F389E02D80818F7D80830895CF932D
:1001B000DF93EC01888D8823C9F0EA89FB8980816F
:1001C00085FD05C0A889B9898C9186FD0FC00FB641
:1001D00007FCF5CF808185FFF2CFA889B9898C9182
:1001E00085FFEDCFCE010E94B600E7CFDF91CF9122
:1001F0000895EF92FF920F931F93CF93DF93EC013B
:1002000081E0888F9B8D8C8D981305C0E889F989D2
:10021000808185FD24C0F62E0B8D10E00F5F1F4FEF
:100220000F731127E02E8C8DE8120CC00FB607FC5F
:10023000FACFE889F989808185FFF5CFCE010E9448
:10024000B600F1CF8B8DFE01E80FF11DE35AFF4F91
:10025000F0820B8FEA89FB898081806207C0EE897A
:10026000FF896083E889F98980818064808381E0E7
:1002700090E0DF91CF911F910F91FF90EF90089543
:100280001F920F920FB60F9211242F938F939F936B
:10029000EF93FF93E0912201F09123018081E0919F
:1002A0002801F091290182FD12C0908180912B01DB
:1002B0008F5F8F7320912C01821751F0E0912B01F9
:1002C000F0E0EE5EFE4F958F80932B0101C08081A0
:1002D000FF91EF919F918F912F910F900FBE0F90F3
:1002E0001F9018951F920F920FB60F9211242F9303
:1002F0003F934F935F936F937F938F939F93AF93AE
:10030000BF93EF93FF9382E191E00E94B600FF91CB
:10031000EF91BF91AF919F918F917F916F915F917D
:100320004F913F912F910F900FBE0F901F901895F6
:1003300082E191E00E946B0021E0892B09F420E02A
:10034000822F0895E2E1F1E01382128288EE93E0B9
:10035000A0E0B0E084839583A683B78384E091E036
:100360009183808385EC90E09587848784EC90E08E
:100370009787868780EC90E0918B808B81EC90E072
:10038000938B828B82EC90E0958B848B86EC90E053
:10039000978B868B118E128E138E148E0895CF92AA
:1003A000DF92EF92FF920F931F93CF93DF936C0135
:1003B0007A018B01C0E0D0E0CE15DF0589F0D801CD
:1003C0006D918D01D601ED91FC910190F081E02DB0
:1003D000C6010995892B11F47E0102C02196ECCF4C
:1003E000C701DF91CF911F910F91FF90EF90DF90A8
:1003F000CF9008951F920F920FB60F9211242F9352
:100400003F938F939F93AF93BF938091B00190914F
:10041000B101A091B201B091B3013091AF0123E0DD
:10042000230F2D3720F40196A11DB11D05C026E82C
:10043000230F0296A11DB11D2093AF018093B0013F
:100440009093B101A093B201B093B3018091B40134
:100450009091B501A091B601B091B7010196A11D8F
:10046000B11D8093B4019093B501A093B601B093F0
:10047000B701BF91AF919F918F913F912F910F90B5
:100480000FBE0F901F901895789484B5826084BD3C
:1004900084B5816084BD85B5826085BD85B5816088
:1004A00085BDEEE6F0E0808181608083E1E8F0E0E8
:1004B0001082808182608083808181608083E0E817
:1004C000F0E0808181608083E1EBF0E080818460F6
:1004D0008083E0EBF0E0808181608083EAE7F0E0F8
:1004E000808184608083808182608083808181605C
:1004F00080838081806880831092C10008951F925C
:100500000F920FB60F9211242F933F934F935F9347
:100510006F937F938F939F93AF93BF93EF93FF93CB
:10052000E091FA01F091FB01309709F451C0968DEA
:10053000A685B785858591FF04C09C91892329F400
:1005400047C09C91892309F043C0A389B4899C9139
:100550008589809589238C93868997890197F1F7FE
:10056000608D718DA685B785558538E020E0CB017B
:100570000197F1F7822F90E095958795282F4C9160
:10058000452309F02068315091F7868D81FD209533
:100590008091B90190E001968F7399273091B8014D
:1005A000381749F0A091B901B0E0A654BE4F2C9382
:1005B0008093B90103C0868D8160868F828D938D73
:1005C0000197F1F7A389B4899C918589892B8C9334
:1005D000FF91EF91BF91AF919F918F917F916F911B
:1005E0005F914F913F912F910F900FBE0F901F90F1
:1005F0001895EE0FFF1F0590F491E02D0994F894E3
:02060000FFCF2A
:1006020000000000F900CF019900D7006B008500BF
:0206120077006F
:00000001FF
